{
  "contractName": "Bank",
  "abi": [
    {
      "inputs": [],
      "stateMutability": "nonpayable",
      "type": "constructor"
    },
    {
      "inputs": [],
      "name": "getBalance",
      "outputs": [
        {
          "internalType": "int256",
          "name": "",
          "type": "int256"
        }
      ],
      "stateMutability": "view",
      "type": "function"
    },
    {
      "inputs": [
        {
          "internalType": "int256",
          "name": "money",
          "type": "int256"
        }
      ],
      "name": "deposit",
      "outputs": [],
      "stateMutability": "nonpayable",
      "type": "function"
    },
    {
      "inputs": [
        {
          "internalType": "int256",
          "name": "money",
          "type": "int256"
        }
      ],
      "name": "withdraw",
      "outputs": [],
      "stateMutability": "nonpayable",
      "type": "function"
    }
  ],
  "bytecode": "0x608060405234801561001057600080fd5b50600080819055506102f2806100276000396000f3fe608060405234801561001057600080fd5b50600436106100415760003560e01c806312065fe0146100465780637e62eab814610064578063f04991f014610080575b600080fd5b61004e61009c565b60405161005b9190610124565b60405180910390f35b61007e600480360381019061007991906100e8565b6100a5565b005b61009a600480360381019061009591906100e8565b6100bc565b005b60008054905090565b806000546100b391906101d3565b60008190555050565b806000546100ca919061013f565b60008190555050565b6000813590506100e2816102a5565b92915050565b6000602082840312156100fe576100fd6102a0565b5b600061010c848285016100d3565b91505092915050565b61011e81610267565b82525050565b60006020820190506101396000830184610115565b92915050565b600061014a82610267565b915061015583610267565b9250817f7fffffffffffffffffffffffffffffffffffffffffffffffffffffffffffffff038313600083121516156101905761018f610271565b5b817f80000000000000000000000000000000000000000000000000000000000000000383126000831216156101c8576101c7610271565b5b828201905092915050565b60006101de82610267565b91506101e983610267565b9250827f80000000000000000000000000000000000000000000000000000000000000000182126000841215161561022457610223610271565b5b827f7fffffffffffffffffffffffffffffffffffffffffffffffffffffffffffffff01821360008412161561025c5761025b610271565b5b828203905092915050565b6000819050919050565b7f4e487b7100000000000000000000000000000000000000000000000000000000600052601160045260246000fd5b600080fd5b6102ae81610267565b81146102b957600080fd5b5056fea26469706673582212206bb38abcf1abf7474cf61dda592cbd2504d5f4155e9d558d9ce76d0cd71ba9f864736f6c63430008070033",
  "immutableReferences": {},
  "source": "// SPDX-License-Identifier: MIT\r\npragma solidity 0.8.7;\r\n\r\ncontract Bank {\r\n    int256 balance;\r\n\r\n    constructor() {\r\n        balance = 0;\r\n    }\r\n\r\n    function getBalance() public view returns (int256) {\r\n        return balance;\r\n    }\r\n\r\n    function deposit(int256 money) public {\r\n        balance = balance + money;\r\n    }\r\n\r\n    function withdraw(int256 money) public {\r\n        balance = balance - money;\r\n    }\r\n}\r\n",
  "sourcePath": "C:\\Users\\seung\\StudioProjects\\study_cnu\\contract\\contracts\\Bank.sol",
  "compiler": {
    "name": "solc",
    "version": "0.8.7+commit.e28d00a7.Emscripten.clang"
  },
  "schemaVersion": "3.4.3",
  "updatedAt": "2021-11-29T11:40:00.226Z",
  "devdoc": {
    "kind": "dev",
    "methods": {},
    "version": 1
  },
  "userdoc": {
    "kind": "user",
    "methods": {},
    "version": 1
  }
}